:020000040800F2
:1000000020B200209D320008A5030008A7030008C5
:10001000AB030008AF030008B303000800000000B2
:10002000000000000000000000000000B70300080E
:10003000B903000800000000BB030008BD0300086E
:10004000B7320008B7320008B7320008B7320008EC
:10005000B7320008B7320008B7320008B7320008DC
:10006000B7320008B7320008B7320008B7320008CC
:10007000B7320008B7320008B7320008B7320008BC
:10008000B7320008B7320008B7320008B7320008AC
:10009000B7320008B7320008B7320008B73200089C
:1000A000B7320008B7320008B7320008B73200088C
:1000B000B7320008B732000823090008B732000839
:1000C000B7320008B7320008B7320008B73200086C
:1000D000B7320008733000080F070008B732000875
:1000E000B7320008B7320008B7320008B73200084C
:1000F000B7320008B7320008B7320008B73200083C
:10010000B7320008B7320008B7320008B73200082B
:10011000B7320008B7320008B7320008B73200081B
:10012000B7320008B7320008B7320008B73200080B
:10013000DFF80CD005F0FAFC004800474501000844
:1001400020B200201CB5002502F0CEFE4FF4A060C6
:1001500003F03AFE4FF4E13002F03FFF4FF4E1309C
:1001600000F04CFB00F01CFA00F042FA02F0DDFF58
:1001700005E049A005F024FF00204D49086000F08B
:1001800033FC0028F5D085E0002000F05AFA044640
:10019000012C12D147A005F013FF0F2248A149A05E
:1001A00000F0F8FB002875D14748006808B9012025
:1001B00000E00020444908606CE0022C1ED143A0FE
:1001C00005F0FEFE4448006844490968CDE9001086
:1001D00043480368434844A1026844A000F011FC6E
:1001E00040B93948006808B9012000E000203649CC
:1001F00008604FE000202E4908604BE0032C49D1F5
:100200003DA005F0DDFE4FF47A7003F01DF80546C1
:100210004FF47A7003F018F83A49086029463A48D2
:10022000006800F031FD284600F0B3FC37A005F06F
:10023000C7FE3448016842A005F0C2FE314801689B
:100240000A3145A005F0BCFE2E48006890F8281041
:1002500047A005F0B5FE2B48006890F829104AA089
:1002600005F0AEFE284602F0E3FF2648006802F0E3
:10027000DFFF0F48006808B9012000E000200C49AA
:1002800008604748D0F8880108B9012000E0002044
:100290000D49086078E70000CEB4BCECB2E2B5BD11
:1002A00077696669C4A3BFE92121210D0A00000016
:1002B000A0012142B0B4BCFC6B657930210D0A006D
:1002C0004F4B00004154000088812242B0B4BCFC76
:1002D0006B657931210D0A000C0000200800002018
:1002E00004000020000000205443500041542B43E0
:1002F000574D4F44453D3100B0B4BCFC776B757031
:10030000210D0A002C000020100000202A2A2A2A91
:100310002A2A2A2A2A2A2A2A2A2A2A2A2A2A2A2A3D
:100320002A2A2A2A2A2A2A2A2A2A2A2A2A2A2A2A2D
:100330002A2A2A2ACAFDBEDDC8E7CFC23A0D0A0022
:1003400055736572446174612D3E636974793A2511
:10035000732C0D0A000000005573657244617461CE
:100360002D3E746578743A25732C0D0A0000000048
:1003700055736572446174612D3E636F64653A25FF
:10038000642C0D0A000000005573657244617461AD
:100390002D3E74656D703A25642C0D0A0000000036
:1003A00000802242704700BFFEE700BFFEE700BFAB
:1003B000FEE700BFFEE770477047704770470000D8
:1003C0000CB50020019000906C48006840F480302B
:1003D0006A49086000BF6948006800F40030009076
:1003E0000198401C0190009818B90198B0F5A06FD1
:1003F000F1D16248006800F4003010B10120009093
:1004000001E0002000900098012843D15C4800687A
:1004100040F010005A4908600846006820F00300C8
:1004200008600846006840F00200086053484068D1
:10043000524948600846406848600846406840F4B1
:10044000806048600846406820F47C104860084698
:10045000406840F4E81048600846006840F080704A
:10046000086000BF4548006800F000700028F9D01F
:100470004248406820F00300404948600846406810
:1004800040F00200486000BF3C48406800F00C00AB
:100490000828F9D10CBD10B5FFF792FF10BD10B5BB
:1004A0003648006840F0010034490860084640685A
:1004B00034490840314948600846006832490840DC
:1004C0002E4908600846006820F48020086008462D
:1004D000406820F4FE0048604FF41F008860FFF77A
:1004E000DAFF4FF000602949086010BD10B5002107
:1004F00000200022214B5B6803F00C0121B104298C
:1005000006D0082928D107E0214B224C236027E0A0
:100510001F4B204C236023E0184B5B6803F47010E2
:10052000164B5B6803F48032022303EB904022B940
:10053000194B4343174C23600DE0104B5B6803F4E9
:10054000003323B1144B4343124C236003E0104BA0
:100550004343104C236003E00D4B0E4C236000BF5F
:1005600000BF064B5B68C3F303130C4CE15C094B03
:100570001B68CB40074C236010BD000000100240F8
:10058000002002400000FFF8FFFFF6FE08ED00E04B
:1005900000127A001400002000093D00180000201D
:1005A00008B50121242003F0A7F94FF48070ADF8BD
:1005B000000010208DF8030003208DF8020069462A
:1005C000094802F0DDFE4FF48071074802F085FF14
:1005D0000420ADF800006946044802F0D1FE042171
:1005E000024802F07AFF08BD0008014000140140F3
:1005F00008B50121142003F07FF90121374802F0EA
:1006000090FF4FF40040ADF8000048208DF8030043
:100610006946334802F0B4FE2020ADF800004820BF
:100620008DF8030069462F4802F0AAFE0120ADF8BC
:10063000000028208DF803006946294802F0A0FE3A
:1006400008BD10B5044614B101202749087026489A
:10065000007868B32021234802F025FF58B14FF4F9
:1006600000411F4802F01FFF28B101211C4802F081
:100670001AFF01281CD10A2002F073FC00201A493D
:1006800008702021174802F00EFF08B9012010BDA4
:100690004FF40041124802F006FF08B90220F6E7C5
:1006A00001210F4802F0FFFE012815D10320EEE7DB
:1006B00020210C4802F0F7FE01280DD1C1030848A3
:1006C00002F0F1FE012807D10121054802F0EBFEFE
:1006D00010B90120044908700020D8E7000230005A
:1006E00000080140001001402800002010B5044619
:1006F00044B10021954804F0C3FB0121934804F064
:100700002BF903E00021914804F026F910BD10B543
:1007100040F225518E4803F013FB08B38C4803F0D8
:100720008FFAC4B28B480088B0F5806F12DA0021CE
:10073000864804F0A5FB8748008810B90120FFF720
:10074000D5FF844801880088401C824A1080824876
:10075000445405E07F48008840F400407D4908800B
:1007600010BD7FB505460C460121042003F0D1F8E9
:10077000ADF80450ADF800400020ADF80600ADF82B
:1007800002006946714803F08BFD012211466F4853
:1007900004F0FDF81E208DF80C0001208DF80D00EE
:1007A00002208DF80E0001208DF80F0003A803F041
:1007B00010FB7FBD70B58CB006460C461546012176
:1007C000084603F08CF8304603F06CFB0194029568
:1007D00010200390002004900590802006900020B7
:1007E0000790089009904FF480500A9000200B90D9
:1007F00001A9304603F0F8FB0CB070BD10B586B00F
:1008000004460121042003F077F80121480403F095
:1008100080F84F4803F0D4F80420ADF8100003200E
:100820008DF8120018208DF8130004A94B4802F02F
:10083000A7FD0820ADF8100004208DF8130004A9CE
:10084000464802F09DFD00940020ADF80400ADF88C
:100850000600ADF80800ADF80C000C20ADF80A0059
:1008600069463B4803F0EFF801228021384803F045
:10087000A7F93B4A3649091D3A48FFF79BFF01217A
:10088000334803F06CF9012240F22551304803F05F
:1008900072F926208DF8140002208DF8150003202F
:1008A0008DF8160001208DF8170005A803F091FAC5
:1008B00041F61F4140F2E730FFF753FF0020254982
:1008C0000880FFF713FF06B010BD70B504460D4653
:1008D0000021204603F0B3FB2946204603F0C4FB69
:1008E0000121204603F0ABFB70BD0FB438B505A85D
:1008F00000901B48009A049905F086FB00200090A8
:1009000000BF184803F0B2FB0028FAD1144804F0E5
:100910003CFBC4B221461348FFF7D7FF38BC5DF853
:1009200014FB10B50121094804F0DFFA60B1094851
:10093000008840F40040074908800121034804F082
:10094000E5FA0020FFF7D2FE10BD000000080040CD
:10095000004400402A0000208804002000080140D4
:10096000880000208000024070B504460025E14860
:10097000008800F4004058B10020DE490988C1F326
:100980000E01DD4A50542146104604F0ECFA0546AB
:10099000284670BD2DE9F04106460D461446002755
:1009A0000020D44908803146D4A0FFF79EFFC5B18E
:1009B000BCB10FE00A2002F0D4FACE48008800F45F
:1009C000004038B12846FFF7CFFF00B106E0002015
:1009D000C8490880601E80B2041EEBD100BF04B974
:1009E00001273846BDE8F08110B500241E22C5A1BC
:1009F000C5A0FFF7CFFF08B9012400E0002420467E
:100A000010BD2DE9F043B5B005460C4616461F460D
:100A1000DDE93C8964211CA804F09AFA642102A84B
:100A200004F096FA3B463246B8A11CA805F0D8FA65
:100A300043462246BAA102A8CDF8009005F0D0FAAC
:100A40001422B0A12846FFF7A5FF002828D11FE0F7
:100A50004FF49672ABA1B9A0FFF79CFFC0B94FF459
:100A60009672A8A102A8FFF795FF88B91422A5A144
:100A7000B5A0FFF78FFF58B91422A2A1B6A0FFF7C7
:100A800089FF18B9002035B0BDE8F0830120FAE7EE
:100A90004FF496729BA11CA8FFF77CFF0028D7D1CA
:100AA0000120F0E710B500BF4021AE4803F032F955
:100AB0000028F9D02B21AB4803F0BEF800BF40213D
:100AC000A84803F027F90028F9D02B21A54803F006
:100AD000B3F800BF4021A34803F01CF90028F9D067
:100AE0002B21A04803F0A8F84FF4FA7002F039FA6D
:100AF000142284A184A0FFF74DFF08B9002010BD87
:100B00000120FCE770B5054632227EA196A0FFF7D2
:100B100041FF10B10020287070BD96A0FFF724FFA0
:100B2000044694A1601C04F01EFA064600203070B2
:100B3000621C91A1284605F053FA00BFECE72DE9AD
:100B4000F04106460D4614460027002069490880FA
:100B5000314689A0FFF7C9FEC5B1BCB10FE00A203C
:100B600002F0FFF96348008800F4004038B12846DD
:100B7000FFF7FAFE00B106E000205E490880601E23
:100B800080B2041EEBD100BF04B901273846BDE88E
:100B9000F0812DE9F05F0646304601F06FF805461A
:100BA00045B900F031F98246514674A005F008FAC3
:100BB000BDE8F09F77A1284601F009FB071E61D030
:100BC000384601F0B2FA82460021384601F0CAFAEE
:100BD000B0F1000855D071A005F0F2F974A14046BB
:100BE00001F0F5FAB0F100090BD074A1484601F00C
:100BF000EEFA041E05D060A172482269006805F073
:100C0000EFF971A005F0DCF972A1404601F0DFFABE
:100C1000B0F100092DD070A005F0D2F970A14846BE
:100C200001F0D5FA041E06D053A166482269006877
:100C30000A3005F0D5F96CA1484601F0C8FA041E47
:100C400006D0206904F09AFB5E49096881F8280003
:100C500067A1484601F0BBFA041E06D0206904F0E3
:100C60008DFB5849096881F82900284600F068F989
:100C700007E000F0C9F88346594640A005F0A0F906
:100C800096E700BF00BF93E72DE9F04106460C460A
:100C90000025A84600274FF4167200213046FFF7C2
:100CA0004EFF18B100202070BDE8F0814FF47A703B
:100CB00002F057F90F48008800F40040B8B14FA087
:100CC000FFF752FE051E13D04DA1284604F04BF944
:100CD00080464CA108F1010004F045F907460020C8
:100CE00078702A4624A1204605F07AF900E0DBE777
:100CF00000BFD9E72A0000208804002025730D0AD0
:100D0000000000004F4B00004154000041542B43B1
:100D1000574A41503D222573222C22257322000080
:100D200041542B43495053544152543D2225732280
:100D30002C222573222C25730000000041542B43E4
:100D400049504D55583D300041542B4349504D4F6B
:100D500044453D310000000041542B434950534568
:100D60004E4400000044004041542B434946535236
:100D70000000000022000000257300004572726F21
:100D800072206265666F72653A205B25735D0D0A9D
:100D900000000000726573756C747300BDE2CEF6DE
:100DA0006C6F636174696F6EA3BA0D0A0000000076
:100DB0006C6F636174696F6E000000006E616D6539
:100DC000000000002C000020BDE2CEF66E6F77A37D
:100DD000BA0D0A006E6F77006E6F770D0A00000083
:100DE0007465787400000000636F646500000000A3
:100DF00074656D7065726174757265007B000000CA
:100E00005D0000007D000000F7480068F649496871
:100E100008447047014609B900207047087B102834
:100E200001D10120F9E70020F7E700B5024610469E
:100E3000FFF7F0FF08B9002000BD1069FCE708B516
:100E40000C2007230122E9A10090EB4805F0C8F827
:100E5000E94808BD70B504460D4604B10DB901203E
:100E600070BDAC4201D10020FAE705E0207808B956
:100E70000020F5E7641C6D1C207804F04AF8064653
:100E8000287804F046F88642F0D0207804F041F843
:100E90000646287804F03DF8301AE1E72DE9F041E4
:100EA00004460D460026002714B90020BDE8F08155
:100EB000204604F06AF8461C3046296888470746F1
:100EC0000FB90020F2E732462146384604F027F8F1
:100ED0003846EBE738B9C949C94A1160C949516078
:100EE000C94991607047C549C54A1160016809B197
:100EF00001681160C349C24A5160416809B1416843
:100F000051600021BE4A916011460968BB4A914276
:100F100007D1BB494968BB4A914202D1BA49B84A94
:100F2000916000BFDEE770B504462820216888473D
:100F300005461DB12821284604F00AF8284670BD50
:100F400070B50446002522E02568A08900F4807071
:100F500020B9A06810B1A068FFF7F2FFA08900F4E3
:100F6000807028B9206918B1A54A2069516888475E
:100F7000A08900F4007028B9206A18B1A04A206A3C
:100F8000516888479E484168204688472C46002C77
:100F9000DAD170BD2E2070472DE9F04391B0804624
:100FA0000C4600BF00201090FFF7F4FF814600259B
:100FB0000CB1206818B9002011B0BDE8F0830025FD
:100FC0003CE0A16820680844405D342820D00ADC59
:100FD000A0F12B0009282ED2DFE800F0202D212AD5
:100FE0002D1617181900382816D006DC352810D011
:100FF00036280FD037281ED10DE039280DD04528CE
:101000000FD0652817D10BE000BF00BF00BF00BFA5
:1010100000BF00BF00BF00BF00BF00BF00BF00BFD8
:1010200000BFA16820680844405D0DF8050003E09A
:101030000DF8059000E00AE000BF6D1C3F2D05D2C1
:1010400024B1A068284461688842BAD300BF002058
:101050000DF8050010A9684605F016FD06460F4676
:1010600068461099884201D10020A5E7C8E90667C3
:10107000664A674B3046394604F002FB04D86FF0ED
:101080000040C8F8140011E00022624B3046394697
:1010900004F0DEFA04D84FF00040C8F8140005E070
:1010A0003046394604F0A1FAC8F814000820C8F800
:1010B0000C00A0686A461099891A0844A0600120B3
:1010C0007AE770B5064614461D46504A504B2046F6
:1010D000294604F0D5FA03D86FF0004070610FE0A4
:1010E00000224C4B2046294604F0B2FA03D84FF0B8
:1010F0000040706104E02046294604F076FA7061F1
:1011000020462946C6E9064570BD2DE9F041044652
:101110000D46002600270CB1206810B90020BDE85C
:10112000F081606828B1D4E90110884201D3002021
:10113000F5E7B5F1004F01D30020F0E7A068401CAF
:1011400005446068A84203D3A16820680844E6E724
:10115000206908B10020E2E7B5F1804F07D3B5F16F
:10116000004F02D26FF0004702E00020D7E76F0087
:10117000206A60B13946226A206890470646E6B97F
:10118000E16920688847002060602060C7E7384632
:10119000A1698847064636B9E1692068884700207A
:1011A00060602060BBE72EB1A068421C3046216819
:1011B00003F0B5FEE1692068884767602660A06893
:1011C0003044ACE770B5044600250CB1206800B986
:1011D00070BDA16820684518284603F0D6FEA168B6
:1011E0000844A06000BFF3E73000002025692E25E9
:1011F000692E256900000000880800209160000821
:1012000038000020356000081D6A00080000C0FF9B
:10121000FFFFDF410000E0C12DE9F04704460D4625
:1012200016461F4632463B462046294604F054F9EE
:1012300021F000418046FD4AFD4B04F009FA02D836
:101240000120BDE8F0870020FBE72DE9F04F8BB0CF
:1012500082460D464FF00009DAE9067800260024A0
:101260001C2104A803F074FEFFF794FE83460020BF
:101270000290039015B90BB0BDE8F08F0022134621
:101280003846414604F02EF900221346CDE900010C
:1012900004F0DEF905D0E7A104A804F0A1FE06469B
:1012A0001BE03A464346E5A104A804F099FE064631
:1012B00002AAE4A104A803F095FE012806D13A464B
:1012C0004346DDE90201FFF7A7FF30B93A4643463E
:1012D000DDA104A804F084FE0646002E01DB192ED1
:1012E00001DD0020C7E7711C2846FFF70EFF81468D
:1012F000B9F1000F01D10020BDE700240DE004A8E2
:10130000005D584503D12E2009F8040004E004A82C
:10131000005D09F8040000BF641CB442EFD3002054
:1013200009F80400A8683044A8600120A3E7024639
:101330000023002100BF23E0505C302806DB505C16
:10134000392803DC505C3038034415E0505C4128F8
:1013500006DB505C462803DC505C373803440BE066
:10136000505C612806DB505C662803DC505C573813
:10137000034401E000207047032900D21B01491CEF
:101380000429D9D31846F6E72DE9FF5F8046894640
:10139000154600240026C246002003908346029092
:1013A0000190A9EB0A00062800DA81E00AF10200A8
:1013B000FFF7BDFF0646B6F55C4F03D3B6F5604FA9
:1013C00000D275E0B6F5584F29D3B6F55C4F26D25A
:1013D0000AF10607002000900C200290A9EB0700FC
:1013E000062800DA64E038785C2802D1787875281D
:1013F00000D05DE0B81CFFF79AFF00900098B0F5B0
:101400005C4F03D30098B0F5604F00D350E0C6F3B3
:101410000901009861F39F2000F5803402E0062066
:1014200002903446802C02D20120039018E0B4F5DB
:10143000006F04D202200390C020019010E0B4F5A8
:10144000803F04D203200390E020019008E0B4F52F
:10145000881F04D204200390F020019000E027E0D0
:101460000398401E00F0FF0B0BE004F0BF0040F0BB
:101470008000296801F80B00A409ABF1010000F01D
:10148000FF0BBBF1000FF0DC0398012804DD01988D
:1014900020432968087003E004F07F002968087081
:1014A0002968039808442860029804B0BDE8F09FBA
:1014B0000020FAE72DE9F84F80460C46A168206825
:1014C0000844461CA16820680844451C0020009080
:1014D0000027A1682068405C222800D0B8E04FF0C7
:1014E000000AD1460DE028785C2809D1681C2168E3
:1014F000401A6168884200D3AAE009F101096D1C15
:101500006D1C2068281A6168884202D22878222837
:10151000E9D12068281A6168884202D228782228F6
:1015200000D095E0A16820680844281AA0EB090AB9
:101530000AF1010021698847074607B988E000974A
:1015400061E030785C2807D016F8010B009908702C
:101550000098401C009056E04FF00209A81B01289B
:1015600000DA75E07078662819D008DC222832D0BD
:101570002F2832D05C282FD0622840D108E06E2876
:1015800014D0722819D074281ED0752837D12BE0BA
:101590000820009908700098401C009030E00C2052
:1015A000009908700098401C009029E00A200099DA
:1015B00008700098401C009022E00D2000990870EF
:1015C0000098401C00901BE00920009908700098CA
:1015D000401C009014E000BF00BF707800990870B4
:1015E0000098401C00900BE06A4629463046FFF701
:1015F000CBFE8146B9F1000F00D129E000E027E0E1
:1016000000BF4E4400BFAE429BD30020009908703B
:101610001020C8F80C00C8F810702068281AA060C4
:10162000A068401CA0600120BDE8F88FBC89D89755
:10163000B2D29C3C6E756C6C0000000025312E31DE
:1016400035670000256C670025312E3137670000B3
:1016500017B138466169884716B12068301AA06012
:101660000020E1E72DE9F04707468A4600240026DE
:101670000025A046A146BAF1000F02D10020BDE826
:10168000F0876FB903215046FFF73FFD06460EB9BC
:101690000020F4E7F9A1304603F08CFC0120EEE7CE
:1016A0003C4622E020780C2811D006DC08280DD01A
:1016B00009280FD00A2810D10AE00D2809D02228C5
:1016C00002D05C2809D100E000BF00BF00BF00BF0E
:1016D00000BF00BF09F1010905E02078202801DAE8
:1016E00009F1050900BF00BF641C20780028D9D18A
:1016F000E01B00EB090808F103015046FFF705FD68
:1017000006460EB90020BAE7B9F1000F0FD122202A
:10171000307042463946701C03F001FC222108F16A
:10172000010031540021401C31540120A7E7222040
:101730003070751C3C463DE020781F2808DD20787D
:10174000222805D020785C2802D0207828702FE04D
:101750005C2005F8010B20780C2815D006DC082841
:101760000FD0092819D00A281AD110E00D2811D05D
:10177000222803D05C2813D1287018E0222028707A
:1017800015E06220287012E0662028700FE06E20BD
:1017900028700CE07220287009E07420287006E0A0
:1017A0002278B7A1284604F01BFC2D1D00BF00BF06
:1017B000641C6D1C20780028BED1222108F1010094
:1017C00031540021401C3154012058E770B50446C3
:1017D0000D4629462069FFF745FF70BD014609B156
:1017E000086808B90020704702E08868401C8860DB
:1017F00041B1D1E90120904204D28A680868805C36
:101800002028F2DDD1E90120904202D18868401EF3
:1018100088600846E7E710B504461CB1206808B1A7
:10182000A06808B1002010BD7CB1A068001D6168EF
:1018300088420AD2A26821688818032292A103F084
:10184000C2FB10B9A068C01CA0602046EBE72DE9E0
:10185000F04180460C4600270025E068B0F57A7F0D
:1018600002D30020BDE8F081E068401CE06044B194
:10187000D4E90110884204D2A1682068405C7B282A
:1018800000D07BE0A068401CA0602046FFF7A6FFC8
:101890004CB1D4E90110884205D2A1682068405CAF
:1018A0007D2800D15DE01CB1D4E90110884203D34A
:1018B000A068401EA06061E0A068401EA06000BF5C
:1018C00004F11000FFF72FFB064606B956E017B9E2
:1018D0003746354602E02E6075603546A068401CEC
:1018E000A0602046FFF77AFF21462846FFF7E2FD79
:1018F00000B943E02046FFF771FF28692862002005
:10190000286144B1D4E90110884204D2A16820685A
:10191000405C3A2800D031E0A068401CA06020461E
:10192000FFF75CFF2146284600F0B0F800B925E03B
:101930002046FFF753FF44B1D4E90110884204D296
:10194000A1682068405C2C28BAD044B1D4E90110C9
:10195000884204D2A1682068405C7D2800D00DE058
:1019600000BFE068401EE0604020C8F80C00C8F8E6
:101970000870A068401CA060012073E717B13846CA
:10198000FFF7DEFA00206DE72DE9F04107460C462F
:101990000026B046E068B0F57A7F02D30020BDE8AB
:1019A000F081E068401CE060A1682068405C5B2832
:1019B00000D05DE0A068401CA0602046FFF70EFF4D
:1019C0004CB1D4E90110884205D2A1682068405C7E
:1019D0005D2800D141E01CB1D4E90110884203D355
:1019E000A068401EA06043E0A068401EA06000BF49
:1019F00004F11000FFF797FA054605B938E016B96B
:101A00002E46A84604E0C8F80050C5F80480A84651
:101A1000A068401CA0602046FFF7E0FE214640463B
:101A200000F034F800B923E02046FFF7D7FE44B1B8
:101A3000D4E90110884204D2A1682068405C2C28B7
:101A4000D6D044B1D4E90110884204D2A1682068FC
:101A5000405C5D2800D00BE000BFE068401EE06005
:101A60002020F860BE60A068401CA060012096E7BE
:101A700016B13046FFF764FA002090E722220000FA
:101A80007525303478000000EFBBBF0070B5054607
:101A90000C460CB1206808B9002070BDA4B1A06844
:101AA000001D616888420FD8A26821688818042246
:101AB000AFF2804103F087FA30B90420E860A068F3
:101AC000001DA0600120E8E79CB1A068401D61688E
:101AD00088420ED8A268216888180522FAA103F06E
:101AE00072FA30B90120E860A068401DA0600120B2
:101AF000D3E7ACB1A068001D6168884210D8A26825
:101B0000216888180422F2A103F05DFA40B902208E
:101B1000E86001206861A068001DA0600120BCE7AA
:101B20006CB1D4E90110884209D2A1682068405CF8
:101B3000222804D121462846FFF7BCFCADE7BCB102
:101B4000D4E90110884213D2A1682068405C2D2896
:101B500009D0A1682068405C302809DBA1682068B2
:101B6000405C392804DC21462846FFF715FA94E743
:101B70006CB1D4E90110884209D2A1682068405CA8
:101B80005B2804D121462846FFF7FEFE85E76CB1AD
:101B9000D4E90110884209D2A1682068405C7B2802
:101BA00004D121462846FFF752FE76E7002074E76D
:101BB0002DE9F04389B004460D4617461C2102A8C2
:101BC00003F0C6F900260020C3490860486004B944
:101BD00034E00294204603F0D8F9401C0390002022
:101BE0000490BE4A07CA06AB07C3BC48FFF79BF97F
:101BF000064606B922E002A8FFF70DFE8146FFF770
:101C0000EDFD804641463046FFF740FF00B915E044
:101C10005FB102A8FFF7E2FDDDE90310884203D2BD
:101C200004990298405C00B108E01DB10499029843
:101C300008442860304609B0BDE8F08316B130464C
:101C4000FFF77EF9C4B1009400200190DDE9031094
:101C5000884202D20498019004E0039810B10398DE
:101C6000401E01901DB1DDE90001084428609A483A
:101C7000DDE9001206C000BF0020DCE710B5044615
:101C8000002211462046FFF793FF10BD2DE9F047D3
:101C900081460C4600250026D9F8087014B90020AA
:101CA000BDE8F087606908B1022000E00120064627
:101CB000711C2046FFF729FA05460DB90020EFE711
:101CC0007B2005F8010BE068401CE060606910B102
:101CD0000A2005F8010BA0683044A06069E0606943
:101CE000B8B12046E168FFF710FA05460DB90020AB
:101CF000D6E74FF0000804E0092005F8010B08F1D1
:101D00000108E0684045F7D8D4E902010844A06022
:101D100000BF2146386AFFF7A5FC08B90020BFE7DD
:101D20002046FFF74FFA606908B1022000E0012069
:101D3000064631462046FFF7E8F905460DB9002072
:101D4000AEE73A2005F8010B606910B1092005F8EB
:101D5000010BA0683044A0602146384600F0A9F885
:101D600008B900209CE72046FFF72CFA606908B10B
:101D7000012000E00020396809B1012100E00021C4
:101D80004618711C2046FFF7C0F905460DB9002022
:101D900086E7386810B12C2005F8010B606910B196
:101DA0000A2005F8010B00202870A0683044A060CC
:101DB0003F68002F93D1606910B1E068401C00E0DB
:101DC000022001462046FFF7A0F905460DB9002084
:101DD00066E7606950B1002003E0092105F8011BA6
:101DE000401CE168491E8142F7D800BF7D2005F8FC
:101DF000010B00202870E068401EE06001204FE7E2
:101E00002DE9F04107460C460025A846BE6814B9E6
:101E10000020BDE8F08101212046FFF776F9054654
:101E20000DB90020F5E75B202870A068401CA06079
:101E3000E068401CE06028E02146304600F039F8B8
:101E400008B90020E5E72046FFF7BCF93068D8B1B3
:101E5000606908B1022000E00120804608F101011C
:101E60002046FFF752F905460DB90020D1E72C2096
:101E700005F8010B606910B1202005F8010B002066
:101E80002870A0684044A0603668002ED4D102219A
:101E90002046FFF73AF905460DB90020B9E75D2065
:101EA00005F8010B00202870E068401EE06001206A
:101EB000AFE72DE9F04104460E46002504B17EB996
:101EC0000020BDE8F081000066616C7365000000D1
:101ED000747275650000000030000020380000209A
:101EE000207B10285AD008DC01281CD0022829D0D9
:101EF000042809D0082860D133E0202853D0402896
:101F000056D0802859D131E005213046FFF7FDF841
:101F100005460DB90020D4E7AFF6E801284603F0E6
:101F200049F80120CDE706213046FFF7EEF80546D7
:101F30000DB90020C5E7AFF27001284603F03AF86A
:101F40000120BEE705213046FFF7DFF805460DB951
:101F50000020B6E7AFF28801284603F02BF80120F5
:101F6000AFE731462046FFF770F9AAE7002720695E
:101F700008B90020A5E7206903F007F8471C394697
:101F80003046FFF7C2F805460DB9002099E73A46FA
:101F90002846216902F0C3FF012092E7314620461E
:101FA000FFF714FC8DE731462046FFF729FF88E74D
:101FB00031462046FFF76AFE83E7002081E7F0B54F
:101FC00089B007460E46144600252421684602F0D3
:101FD000BFFF4FF480702168884700904FF48070F5
:101FE0000190059694E8070006AB07C3009800B976
:101FF00033E069463846FFF75CFF00B92DE06846DC
:10200000FFF7E0F8A06850B1029B591C0098A26845
:102010009047054605B920E0002000901AE0029A9A
:10202000501C21688847054605B916E0DDE90130F6
:10203000401C834201D2019801E00298401C0246F4
:102040002846009902F06BFF00200299685400981E
:1020500061688847284609B0F0BD009810B1009823
:102060006168884715B12846616888470020F2E713
:1020700010B50446F84A01212046FFF7A0FF10BD25
:1020800010B50446F44A00212046FFF798FF10BD22
:1020900070B58AB006460C461546242101A802F008
:1020A00057FF002C02DA00200AB070BDEA48016830
:1020B000204688470190019808B90020F4E702946F
:1020C0000020039005900695E34A07CA07AB07C3B3
:1020D00001A93046FFF7EDFE28B9DF4A01985168A3
:1020E00088470020E0E70198DEE7F0B589B00746B1
:1020F0000C4615461E462421684602F029FF002D95
:1021000000DB14B9002009B0F0BD00940195002057
:102110000290012004900596CF4A07CA06AB07C378
:1021200069463846FFF7C5FEEDE701460022002369
:1021300009B9002070478A6801E05B1C1268002A18
:10214000FBD11846F6E702460B4600210AB90020EB
:102150007047916801E05B1E096809B1002BFAD154
:102160000846F5E770B505460C46002C01DA00205C
:1021700070BD21462846FFF7E6FFF9E72DE9F0415B
:1021800005460E461746002405B116B90020BDE8E5
:10219000F081AC685FB100E024688CB1206A78B14E
:1021A0003046216A02F0F8FE0028F5D108E000E090
:1021B00024682CB13046216AFEF74CFE0028F7D186
:1021C0000CB1206A08B90020E1E72046DFE770B5CE
:1021D00004460D46002229462046FFF7CFFF70BD7A
:1021E00070B504460D46012229462046FFF7C6FF7A
:1021F00070BD70B504460D4629462046FFF7E7FF3F
:1022000008B1012070BD0020FCE701604860704704
:1022100070B505460E4600240DB9002070BD30464D
:10222000FEF781FE04460CB90020F7E72822294674
:10223000204602F074FE00202062E06840F48070C6
:10224000E0600020606020602046E7E770B504464B
:102250000E46002506B10CB9002070BDA5680DB969
:10226000A66008E000E02D6828680028FBD1314610
:102270002846FFF7CAFF0120EFE770B504460D4678
:1022800029462046FFF7E2FF70BD70472DE9F04771
:1022900007460D4614461E46DDF820904FF0000814
:1022A000C2460FB105B114B90020BDE8F087B9F1FD
:1022B000000F07D02846FFF7E8FF8046E06840F4AB
:1022C000007A0CE031462846FEF7E8FD8046B8F17A
:1022D000000F01D10020E8E7E06820F4007AA0892F
:1022E00000F4007020B9206A10B1206A7168884734
:1022F000C4F82080C4F80CA021463846FFF7A6FF9A
:10230000D3E7F8B504460D4616460020524B324638
:10231000294600902046FFF7B9FFF8BDF8B50446FE
:102320000D46164601204C4B324629460090204669
:10233000FFF7ACFFF8BD70B504460D4604B970BD9B
:1023400045492846FFF764FF064631462046FFF719
:102350007DFF00BFF3E7F8B504460D46164604B10D
:1023600005B9F8BD3C493046FFF752FF074600204B
:10237000394B3A46294600902046FFF787FF00BFB9
:10238000EFE710B53448FEF7CEFD04460CB104204B
:10239000E060204610BDF8B504460D46FFF7F1FF9A
:1023A000064600202C4B3246294600902046FFF777
:1023B0006DFF08B13046F8BD3046FEF7C1FD002084
:1023C000F9E710B52448FEF7AEFD04460CB1022033
:1023D000E060204610BDF8B504460D46FFF7F1FF5A
:1023E000064600201C4B3246294600902046FFF747
:1023F0004DFF08B13046F8BD3046FEF7A1FD002084
:10240000F9E710B51448FEF78EFD04460CB1012023
:10241000E060204610BDF8B504460D46FFF7F1FF19
:10242000064600200C4B3246294600902046FFF716
:102430002DFF08B13046F8BD3046FEF781FD002083
:10244000F9E770B505460448FEF76DFD04463CB15A
:1024500025B1022003E00000380000200120E060E8
:10246000204670BDF8B505460E4614462046FFF7D7
:10247000E8FF07460020F74B3A46314600902846D1
:10248000FFF704FF08B13846F8BD3846FEF758FD9F
:102490000020F9E770B505460E46EE48FEF743FD0D
:1024A0000446F4B10820E060C4E90656EA4AEB4B62
:1024B0002846314603F0E4F803D86FF0004060612D
:1024C0000FE00022E64B2846314603F0C1F803D85E
:1024D0004FF00040606104E02846314603F085F883
:1024E0006061204670BD2DE9F84306460F4614464C
:1024F0001D4620462946FFF7CDFF80460020D54BDC
:102500004246394600903046FFF7C0FE10B14046C3
:10251000BDE8F8834046FEF713FD0020F8E770B5EC
:102520000546CC48FEF7FFFC04466CB11020E06085
:10253000C8492846FEF7B2FC2061206920B9204630
:10254000FEF7FEFC002070BD2046FCE7F8B505460E
:102550000E4614462046FFF7E2FF07460020BD4B1B
:102560003A46314600902846FFF790FE08B13846BB
:10257000F8BD3846FEF7E4FC0020F9E770B50546E3
:10258000B448FEF7D0FC04466CB18020E060B1494D
:102590002846FEF783FC2061206920B92046FEF71B
:1025A000CFFC002070BD2046FCE7F8B505460E467E
:1025B00014462046FFF7E2FF07460020A54B3A46A7
:1025C000314600902846FFF761FE08B13846F8BD55
:1025D0003846FEF7B5FC0020F9E710B59D48FEF738
:1025E000A2FC04460CB14020E060204610BDF8B5C6
:1025F00004460D46FFF7F1FF06460020954B324694
:10260000294600902046FFF741FE08B13046F8BD4C
:102610003046FEF795FC0020F9E710B58D48FEF72F
:1026200082FC04460CB12020E060204610BDF8B5C5
:1026300004460D46FFF7F1FF06460020854B324663
:10264000294600902046FFF721FE08B13046F8BD2C
:102650003046FEF775FC0020F9E7024602B109B9E1
:1026600000207047486810B1D1E90003186008687D
:1026700010B1D1E9003058609068884201D10868F3
:1026800090600020486008600846EAE770B505469B
:102690000C46002C01DA002070BD21462846FFF7C9
:1026A00052FD064631462846FFF7D7FFF4E770B5DE
:1026B00004460D4629462046FFF7E8FF0646FEF78A
:1026C0003FFC70BD70B504460D4629462046FFF715
:1026D0007EFD064631462046FFF7BFFF70BD70B550
:1026E00004460D4629462046FFF77AFD0646314648
:1026F0002046FFF7B2FF70BD70B504460D4629466F
:102700002046FFF7DFFF0646FEF71AFC70BD70B5E6
:1027100004460D4629462046FFF7E1FF0646FEF730
:102720000FFC70BD2DE9F04106460F46144600250A
:10273000002F01DABDE8F08139463046FFF703FD8E
:10274000054625B921463046FFF780FDF2E72560B2
:10275000686860606C60B068A84201D1B46001E054
:102760006068046000BFE5E770B506460D46144694
:102770000EB104B10DB9002070BDAC4201D10120F1
:10278000FAE72868206068686060206808B12068FF
:102790004460606808B160680460B068A84200D115
:1027A000B4600020286068602846FEF7C9FB01205D
:1027B000E2E72DE9F04105460C461646002C01DA09
:1027C000BDE8F08121462846FFF7BDFC07463246AA
:1027D00039462846FFF7C8FF00BFF1E710B50446A9
:1027E0001C4841682046884710BD2DE9F041074646
:1027F0000D4614461E4604B115B90020BDE8F0810F
:10280000A08900F4007020B9206A10B1206AFFF797
:10281000E5FF10492846FEF741FB2062E06820F4FE
:102820000070E060324629463846FFF7A7FC804634
:10283000224641463846FFF797FF0120DEE770B594
:1028400004460D4616460023324629462046FFF729
:10285000CCFF70BD380000200000C0FFFFFFDF414B
:102860000000E0C170B504460D461646012332460D
:1028700029462046FFF7B9FF70BD70B50546F748F9
:10288000FEF751FB044634B14FF48870E0602846EF
:10289000FFF7FBFC2061204670BD70B50546EF4890
:1028A000FEF741FB044634B14FF4A070E0602846C7
:1028B000FFF7EBFCA060204670BD70B50546E74809
:1028C000FEF731FB044634B14FF49070E0602846C7
:1028D000FFF7DBFCA060204670BD2DE9F05F0646E7
:1028E000894600240025A346A246B9F1000F00DB6B
:1028F00016B90020BDE8F09FFFF78FFE8246002446
:1029000017E056F8240002F05FFE0746FFF7C2FD0D
:10291000054625B95046FEF713FB0020EAE714B937
:10292000CAF8085003E029465846FFF76EFCAB464C
:10293000641CBAF1000F01D04C45E2D35046D9E7F0
:102940002DE9F05F0646894600240025A346A246ED
:10295000B9F1000F00DB16B90020BDE8F09FFFF7CA
:102960005CFE8246002417E056F8240002F05CFE6C
:102970000746FFF78FFD054625B95046FEF7E0FAFA
:102980000020EAE714B9CAF8085003E0294658467F
:10299000FFF73BFCAB46641CBAF1000F01D04C457D
:1029A000E2D35046D9E72DE9F04706460F4600240A
:1029B0000025A146A046002F00DB16B90020BDE887
:1029C000F087FFF72AFE8046002417E006EBC400DC
:1029D000D0E900211046FFF75DFD054625B94046C8
:1029E000FEF7AEFA0020EAE714B9C8F8085003E091
:1029F00029464846FFF709FCA946641CB8F1000FB8
:102A000001D0BC42E2D34046D9E72DE9F047064663
:102A10000F4600240025A146A046002F00DB16B972
:102A20000020BDE8F087FFF7F8FD8046002414E0A1
:102A300056F82400FFF773FD054625B94046FEF71A
:102A40007FFA0020EDE714B9C8F8085003E02946E2
:102A50004846FFF7DAFBA946641CB8F1000F01D025
:102A6000BC42E5D34046DCE72DE9F0470446894601
:102A700000250027A846002604B948E07748FEF75D
:102A800052FA054605B942E0E06820F48070E8603B
:102A900060696861D4E90601C5E90601206938B1B9
:102AA0006E492069FEF7FAF92861286900B92EE01D
:102AB000206A68B1A08900F4007008B1206A03E0C0
:102AC0006649206AFEF7EAF92862286A00B91EE022
:102AD000B9F1000F02D12846BDE8F087A76812E0DF
:102AE00001213846FFF7C0FF064606B90FE0B8F1EE
:102AF000000F05D0C8F80060C6F80480B04601E0B9
:102B0000AE60B0463F68002FEAD12846E4E715B131
:102B10002846FEF715FA0020DEE70168891C0160EF
:102B20000AE0016809780A2903D10168491C01609B
:102B300070470168491C0160016809780029F0D1DB
:102B400000BFF5E70168891C01600EE001680978A3
:102B50002A2907D1016849782F2903D10168891CE6
:102B6000016070470168491C01600168097800290B
:102B7000ECD100BFF5E7026812780B681A700268A2
:102B8000521C02600A68521C0A6028E0026812782F
:102B90000B681A7002681278222A08D10B681A7022
:102BA0000268521C02600A68521C0A607047026880
:102BB00012785C2A0DD102685278222A09D1026863
:102BC00052780B685A700268521C02600A68521CE4
:102BD0000A600268521C02600A68521C0A6002689D
:102BE0001278002AD2D100BFE0E701B582B0029886
:102BF0000190029800B90EBD3EE0029800782028AE
:102C00000CD006DC09280AD00A280AD00D2827D1C2
:102C100006E022281DD02F2822D106E000BF00BFE9
:102C200000BF0298401C029025E0029840782F28AF
:102C300003D102A8FFF771FF0AE0029840782A2822
:102C400003D102A8FFF77EFF02E00298401C029029
:102C500011E001A902A8FFF78EFF0CE03800002068
:102C600002980078019908700298401C029001981F
:102C7000401C019000BF00BF029800780028BCD122
:102C80000199087000BFB6E7014609B900207047F6
:102C9000087B08B90120FAE70020F8E7014609B9E6
:102CA00000207047087B012800D1FAE70020F8E7F0
:102CB000014609B900207047087B022801D1012094
:102CC000F9E70020F7E7014609B900207047087BC3
:102CD00000F0030008B10120F8E70020F6E7014604
:102CE00009B900207047087B042801D10120F9E7C9
:102CF0000020F7E7014609B900207047087B082843
:102D000001D10120F9E70020F7E7014609B90020C9
:102D10007047087B202801D10120F9E70020F7E760
:102D2000014609B900207047087B402801D10120E5
:102D3000F9E70020F7E7014609B900207047087B52
:102D4000802801D10120F9E70020F7E72DE9F047BD
:102D50000446894692465CB1B9F1000F08D0207B49
:102D600099F80C10884203D12046FFF78DFF10B16F
:102D70000020BDE8F087207B102814D008DC012853
:102D80000DD002280CD004280BD008280FD109E060
:102D900020280AD0402809D0802808D104E000BFAC
:102DA00000BF00BF00BF00BF00BF00BF01E00020A8
:102DB000DFE700BF4C4501D10120DAE7207B102876
:102DC00021D008DC01280DD002280CD004280BD01B
:102DD00008287DD10AE0202827D040283CD0802830
:102DE00076D111E000BF00BF0120C2E7D9E9065348
:102DF0002A46D4E906713846FEF70EFA08B10120DA
:102E0000B7E70020B5E700BF206910B1D9F810007E
:102E100008B90020ADE7D9F81010206902F0BCF81D
:102E200008B90120A5E70020A3E7A568D9F8086044
:102E300009E0524631462846FFF788FF08B90020CE
:102E400097E72D6836680DB1002EF2D1B54201D05A
:102E500000208EE701208CE7002500260CB1A06839
:102E600000E00020054611E052464846296AFFF777
:102E700085F906460EB900207BE7524631462846C2
:102E8000FFF764FF08B9002073E72D68002DEBD130
:102E9000B9F1000F02D0D9F8080000E00020064682
:102EA00012E052462046316AFFF768F9054615B927
:102EB00000205EE70CE0524629463046FFF746FF09
:102EC00008B9002055E73668002EEAD1012050E706
:102ED00000204EE710B504460248016820468847A6
:102EE00010BD00003800002010B56FF0040000F0A5
:102EF000BAFF2E4800682E49B0FBF1F02D4908704A
:102F00000846007800EB4001C1EBC0104FF6FF719E
:102F100001EAC0002849088010BD0146254A127800
:102F20004A434FF0E0235A6100229A611A4612691F
:102F300042F001021A6100BF4FF0E022106900F078
:102F400001021AB100F48032002AF5D04FF0E022DD
:102F5000126922F001024FF0E0231A6100229A6107
:102F600070470146144A12884A434FF0E0235A61E1
:102F700000229A611A46126942F001021A6100BFEA
:102F80004FF0E022106900F001021AB100F4803223
:102F9000002AF5D04FF0E022126922F001024FF032
:102FA000E0231A6100229A6170470000140000209B
:102FB00000127A004400002046000020014600BFB5
:102FC000704700BF494A128802F04002002AF9D037
:102FD000C2B2464B1B1D1A80704710B586B004461E
:102FE000012144F2040000F087FC4FF40070ADF8BA
:102FF000140003208DF8160018208DF8170005A97D
:103000003B4800F0BDF94FF48060ADF81400042097
:103010008DF8170005A9364800F0B2F925208DF883
:10302000000003208DF801008DF8020001208DF8CA
:103030000300684600F0CDFE01940020ADF80800C2
:10304000ADF80A00ADF80C00ADF810000C20ADF89A
:103050000E0001A9254800F0F6FC012240F225519E
:10306000224800F088FD0121204800F078FD06B0DC
:1030700010BD10B540F225511C4800F061FE10B3A0
:103080001A4800F0DDFDC4B21A48008800F4004080
:10309000C8B91848008800F4804060B10A2C03D0F9
:1030A00000201449088020E01248008840F40040C5
:1030B0001049088019E00D2C06D10E48008840F414
:1030C00080400C49088010E00A480088C0F30D00D9
:1030D00009490C5407480088401C064908800846E6
:1030E0000088C72801DD0020088010BD003801409D
:1030F000000801404C0000209708002070B50346EE
:103100000C4603E014F8015B03F8015B151EA2F105
:103110000102F7D170BD30B5034601E003F8011B91
:10312000141EA2F10102F9D130BD00B55A494FF485
:103130000C62C8680021FFF7EEFF57494FF40C42BC
:1031400088680021FFF7E7FF01205349087400BD9C
:103150000022002106E05048C06830F8110000B19C
:10316000521C491CB1F58C6FF5D3642050434FF4C9
:103170008C63B0FBF3F0C0B270472DE9F041064616
:103180000024A0464448007C10B9434908688047A1
:103190001EB94FF0FF30BDE8F081C6F34F1506F0C1
:1031A0001F0008B1681C85B240F25F441AE03A483B
:1031B000C06830F8140020B908F101001FFA80F847
:1031C00001E04FF00008A8450BD1002705E0324888
:1031D000C068E11920F811507F1CAF42F7D360019D
:1031E000D9E7641E002CE2DA4FF0FF30D3E770B568
:1031F00005462948007C20B92749086880470120F6
:1032000070BDB5F50C4F11D269092348C06830F87C
:103210001120002406E000201F4BDB680E1923F864
:103220001600641C9442F6DB0020E9E70220E7E781
:1032300070B5044604B970BD17488068251A284641
:10324000FFF7D5FF00BFF6E770B505462846FFF744
:1032500094FF0446601C08B9002070BD0E488068C9
:103260002044FAE770B506460C462046FFF785FF76
:103270000546681C08B9002070BD074989684819CF
:1032800022463146FFF73AFF3046FFF7D1FF0248AA
:1032900080682844F0E7000050000020064880477E
:1032A00006480047FEE7FEE7FEE7FEE7FEE7FEE72B
:1032B000FEE7FEE7FEE7FEE79F0400083101000895
:1032C00010B50446CC48844208D10121042000F006
:1032D0002DFB0021042000F029FB46E0C748844272
:1032E00008D10121082000F021FB0021082000F076
:1032F0001DFB3AE0C248844208D10121102000F0B1
:1033000015FB0021102000F011FB2EE0BD48844287
:1033100008D10121202000F009FB0021202000F02D
:1033200005FB22E0B848844208D10121402000F08A
:10333000FDFA0021402000F0F9FA16E0B34884427B
:1033400008D10121802000F0F1FA0021802000F056
:10335000EDFA0AE0AE48844207D10121801500F061
:10336000E5FA0021A01500F0E1FA10BD10B5012129
:10337000084600F0DBFA0021012000F0D7FA10BD6A
:103380002DE9F041024600250026002000230024FC
:10339000002791F803C00CF00F0591F803C00CF062
:1033A000100CBCF1000F03D091F802C04CEA0505E7
:1033B00091F800C0BCF1000F31D0146800202BE060
:1033C0004FF0010C0CFA00F3B1F800C00CEA030650
:1033D0009E4220D183004FF00F0C0CFA03F7BC4340
:1033E00005FA03FC4CEA040491F803C0BCF1280F71
:1033F00006D14FF0010C0CFA00FCC2F814C00AE030
:1034000091F803C0BCF1480F05D14FF0010C0CFA44
:1034100000FCC2F810C0401C0828D1D31460B1F8D9
:1034200000C0BCF1FF0F34DD546800202EE000F135
:10343000080C4FF0010808FA0CF3B1F800C00CEAD0
:1034400003069E4221D183004FF00F0C0CFA03F7C4
:10345000BC4305FA03FC4CEA040491F803C0BCF138
:10346000280F05D100F1080C08FA0CF8C2F81480F6
:1034700091F803C0BCF1480F07D100F1080C4FF0E0
:10348000010808FA0CF8C2F81080401C0828CED3B6
:103490005460BDE8F0814FF6FF7101800221817018
:1034A0000421C17070470246002093680B400BB1A5
:1034B000012000E0002070470146886880B2704714
:1034C00002460020D3680B400BB1012000E0002031
:1034D00070470146C86880B270470161704741611A
:1034E00070470AB1016100E041617047C1607047F7
:1034F0004FF480320A43826181618261826982690C
:10350000704702460020434B18684FF680731840FE
:1035100040EA021008433F4B186070473E49C861BB
:103520007047F0B50A46002300240021002500F072
:103530000046B6F1004F02D1364EF16901E0354E3A
:103540007168C0F3034583B200F44016B6F5401F1E
:1035500008D121F070612F4E766826F070662D4FED
:103560007E6012E000F48016B6F5801F06D10326B7
:1035700006FA05F4A14341F0706106E0460D3601FC
:1035800003FA06F6B14341F0706122B1460D3601EF
:1035900003FA06F6314300F00046B6F1004F02D1BF
:1035A0001C4EF16101E01B4E7160F0BD30B5002290
:1035B0008B071C0F0F2303FA04F2164B08338C10F1
:1035C00053F824309343134C08348D1044F82530BD
:1035D00023468C1053F824308C07240F00FA04F48F
:1035E00023430C4C08348D1044F8253030BD0A4973
:1035F000DC3108607047000000080140000C014009
:10360000001001400014014000180140001C01405E
:10361000002001400000014000002042DF48006817
:1036200040F00100DD49086008464068DC49084078
:10363000DA49486008460068DA490840D749086016
:103640000846006820F4802008600846406820F49E
:10365000FE0048604FF41F0088607047CF4909683A
:1036600021F48031CD4A11601146096821F480218E
:103670001160B0F5803F03D0B0F5802F0ED106E089
:10368000C649096841F48031C44A116007E0C34962
:10369000096841F4A021C14A116000E000BF00BFE9
:1036A000704710B501460022002300204A11012A6C
:1036B00002D1BA4C236806E0022A02D1B74C236A31
:1036C00001E0B64C636A01F01F02012494401C40E3
:1036D0000CB1012000E0002010BD38B500200090A2
:1036E0000024002500BF3120FFF7DBFF05460098CE
:1036F000401C00900098B0F5A06F01D0002DF2D0D2
:103700003120FFF7CEFF08B1012400E0002420465D
:1037100038BD01460020A14A106820F0F80040EAB8
:10372000C10010607047A049086070470246002041
:103730009A4B586820F47C1042EA01031843974BD7
:103740005860704798490866704701460020934AC0
:10375000506820F003000843506070478F4840686D
:1037600000F00C007047014600208C4A506820F0A1
:10377000F00008435060704701460020874A5068B7
:1037800020F4E06008435060704701460020834AFF
:10379000506820F4605040EAC1005060704729B181
:1037A0007E4A527A02437D4B5A7204E07B4A527A37
:1037B00082437A4B5A7270477B49D8310860704710
:1037C00001460020754A506820F44040084350608C
:1037D00070470021714A20321170704A82F820101F
:1037E000012802D004280AD104E001216B4A2032CA
:1037F000117005E00521694A2032117000E000BF18
:1038000000BF70476949086070476449096A01430D
:10381000624A11627047654944390860704730B5A3
:1038200000210022002400235C4D6D6805F00C018E
:1038300021B1042905D0082923D105E05C4D05609C
:1038400022E05B4D05601FE0544D6D6805F4701279
:10385000524D6D6805F48034022505EB92421CB987
:10386000544D554305600BE04C4D6D6805F4003533
:103870001DB1504D5543056002E04D4D5543056067
:1038800002E04B4D056000BF00BF444D6D6805F080
:10389000F0010909484D6B5C0568DD4045603F4D0E
:1038A0006D6805F4E061090A434D6B5C4568DD40D5
:1038B00085603A4D6D6805F46051C90A3E4D6B5CF8
:1038C0004568DD40C560354D6D6805F44041890BA4
:1038D0003A4D6B5CC568B5FBF3F5056130BD29B1A8
:1038E0002E4A526902432D4B5A6104E02B4A526919
:1038F00082432A4B5A61704729B1284A9269024390
:10390000264B9A6104E0254A92698243234B9A61CF
:10391000704729B1214AD2690243204BDA6104E0A1
:103920001E4AD26982431D4BDA61704729B11B4A96
:10393000D2680243194BDA6004E0184AD268824325
:10394000164BDA60704729B1144A12690243134BCF
:103950001A6104E0114A12698243104B1A617047E0
:1039600012494039086070470F49C86470470B49D5
:10397000C87170470948406A40F080700749486242
:10398000704701460020054A92680A400AB10120AA
:1039900000E0002070470149887270470010024023
:1039A0000000FFF8FFFFF6FE0000424280044242A2
:1039B00000127A0000093D0064000020740000201D
:1039C00010B50446FB48844209D101218803FFF762
:1039D000ADFF00214FF48040FFF7A8FF32E0F6482A
:1039E000844209D101214804FFF7ADFF00214FF4C3
:1039F0000030FFF7A8FF25E0F048844209D10121FB
:103A00008804FFF7A0FF00214FF48020FFF79BFF01
:103A100018E0EB48844209D10121C804FFF793FF65
:103A200000214FF40020FFF78EFF0BE0E5488442B1
:103A300008D101210805FFF786FF00214FF480100F
:103A4000FFF781FF10BD2DE9F04786B005460E4611
:103A50000024A24600BFA1460027B08900B100BFE4
:103A60002F462C8A4CF6FF700440F08804432C82C9
:103A7000AC894EF6F3100440B0883189084371894F
:103A800008430443AC81AC8A4FF6FF400440B08940
:103A90000443AC8201A8FFF7C2FEC648874202D1A8
:103AA000DDF810A001E0DDF80CA0A88900F40040CA
:103AB00040B10AEBCA0000EB0A1031684900B0FBC4
:103AC000F1F807E00AEBCA0000EB0A103168890040
:103AD000B0FBF1F86420B8FBF0F004012009642188
:103AE00001FB1089A88900F4004040B1322000EBAE
:103AF000C900B0FBF1F000F00700044308E03220F9
:103B000000EB09106421B0FBF1F000F00F0004435A
:103B10002C8106B0BDE8F0874FF4165101600021FA
:103B20008180C18001810C21418100218181704708
:103B300010B502460020108A4FF2FF0318400B8890
:103B40004C8823438C882343CC882343184310821A
:103B500010BD0021018041808180C180704721B16A
:103B6000828942F40052828104E082894DF6FF731B
:103B70001A4082817047F0B50346002400260025D4
:103B8000002040F66A17B94200D100BF1846C1F3C1
:103B9000421401F01F06012707FA06F5012C01D196
:103BA0000C3004E0022C01D1103000E014301AB1C6
:103BB00007682F43076002E00768AF430760F0BD66
:103BC0001AB1838A0B43838202E0838A8B43838208
:103BD0007047028A4FF6F0731A400282028A0A4343
:103BE0000282704782894FF2FF731A408281828974
:103BF0000A438281704721B1828942F002028281A8
:103C000004E082894FF6FD731A4082817047028A70
:103C10004FF6DF731A400282028A0A43028270471B
:103C200021B1028A42F48042028204E0028A4BF609
:103C3000FF731A4002827047C1F308028280704706
:103C400001468888C0F308007047818941F001016E
:103C500081817047028BD2B20283028B42EA012239
:103C600002837047028B02F47F420283028B0A4375
:103C70000283704721B1828A42F02002828204E0EE
:103C8000828A4FF6DF731A408282704721B1828A9E
:103C900042F01002828204E0828A4FF6EF731A40EB
:103CA0008282704721B1828A42F00802828204E057
:103CB000828A4FF6F7731A408282704721B1828957
:103CC00042F40042828103E08289C2F30E028281C3
:103CD000704721B1828A42F40062828204E0828AC3
:103CE0004FF2FF731A4082827047828A4FF6FB734D
:103CF0001A408282828A0A438282704721B1828A74
:103D000042F00202828204E0828A4FF6FD731A407A
:103D10008282704702460020B1F5007F00D100BFCB
:103D200013880B400BB1012000E00020704701F424
:103D30000072B2F5007F00D100BFCA430280704715
:103D400070B50246002400230025002040F66A16C4
:103D5000B14200D100BFC1F3421501F01F0301269B
:103D600006FA03F3012D02D19689334006E0022DB5
:103D700002D1168A334001E0968A33400C120126A4
:103D800006FA04F41688344013B10CB1012000E0A7
:103D9000002070BD10B50022002340F66A14A14235
:103DA00000D100BF0A1201249440A3B2DC43048076
:103DB00010BD0000003801400044004000480040B1
:103DC000004C00400050004031490143314A11602D
:103DD000704770B5002100230F22C47804B32D4C26
:103DE000246804F4E064C4F5E064210AC1F104032A
:103DF000CA40447804FA03F184781440214309014D
:103E0000254C0678A155047804F01F050124AC4028
:103E100005786D11AD0005F1E025C5F8004109E018
:103E2000047804F01F050124AC401C4D067876117F
:103E300045F8264070BD1A4A0A400243154B1B1F25
:103E40001A60704739B1134A121D12680243114BB0
:103E50001B1D1A6006E00F4A121D126882430D4BAB
:103E60001B1D1A607047042808D14FF0E021096932
:103E700041F004014FF0E022116107E04FF0E02132
:103E8000096921F004014FF0E02211617047000040
:103E90000000FA050CED00E000E400E080E100E045
:103EA00080FFFF1F01684FF6FE7211400160002184
:103EB000016041608160C1608D49884208D18C49B0
:103EC0000839496841F00F01894A083A51608AE08F
:103ED00087491431884208D185490839496841F039
:103EE000F001834A083A51607DE0814928318842D7
:103EF00008D17F490839496841F470617C4A083A21
:103F0000516070E07A493C31884208D178490839DB
:103F1000496841F47041764A083A516063E0744957
:103F20005031884208D172490839496841F47021FA
:103F30006F4A083A516056E06D496431884208D1B1
:103F40006B490839496841F47001694A083A51607F
:103F500049E067497831884208D16549083949689C
:103F600041F07061624A083A51603CE06149884220
:103F700006D1011F096841F00F01021F116032E0F4
:103F80005C491431884208D15A49091F096841F037
:103F9000F001584A121F116025E056492831884225
:103FA00008D15449091F096841F47061514A121F30
:103FB000116018E04F493C31884208D14D49091F32
:103FC000096841F470414B4A121F11600BE04949E6
:103FD0005031884207D14749091F096841F47021CF
:103FE000444A121F1160704710B50022026847F65C
:103FF000F0739A430C6A8B6823430C6923434C6922
:1040000023438C692343CC6923434C6A23438C6A42
:1040100023431A430260CB6843600B6883604B689C
:10402000C36010BD0021016041608160C160016119
:1040300041618161C161016241628162704721B168
:10404000026842F00102026004E002684FF6FE736B
:104050001A40026070471AB103680B43036002E024
:1040600003688B43036070474160704701464868AE
:1040700080B2704701460020002201F080531BB13E
:104080001C4B083B1A6802E0194B083B1A6802EA0D
:1040900001030BB1012000E00020704700F08051C7
:1040A00019B11449091F086002E011490839486034
:1040B000704701460020002201F080531BB10D4BD8
:1040C000083B1A6802E00A4B083B1A6802EA01033F
:1040D0000BB1012000E00020704700F0805119B1C1
:1040E0000449091F086002E0014908394860704727
:1040F000080002400804024010B50446FE4884420D
:1041000008D10121C014FFF711FC0021E014FFF7D2
:104110000DFCC4E0B4F1804F08D101210846FFF73F
:1041200012FC00210120FFF70EFCB8E0F3488442A6
:1041300008D101210220FFF706FC00210220FFF731
:1041400002FCACE0EE48844208D101210420FFF7D4
:10415000FAFB00210420FFF7F6FBA0E0E9488442C7
:1041600008D101210820FFF7EEFB00210820FFF70E
:10417000EAFB94E0E448844208D101211020FFF7D3
:10418000E2FB00211020FFF7DEFB88E0DF488442DD
:1041900008D101212020FFF7D6FB00212020FFF7C6
:1041A000D2FB7CE0DA48844208D101214014FFF7B9
:1041B000BDFB00216014FFF7B9FB70E0D5488442D5
:1041C00009D10121C804FFF7B1FB00214FF4002001
:1041D000FFF7ACFB63E0D048844209D10121080518
:1041E000FFF7A4FB00214FF48010FFF79FFB56E080
:1041F000CA48844209D101214805FFF797FB0021F5
:104200004FF40010FFF792FB49E0C548844208D103
:1042100001214020FFF797FB00214020FFF793FB8F
:104220003DE0C048844208D101218020FFF78BFB8C
:1042300000218020FFF787FB31E0BB48844208D192
:1042400001218015FFF77FFB0021A015FFF77BFB05
:1042500025E0B648844209D101210804FFF766FB36
:1042600000214FF48030FFF761FB18E0B048844232
:1042700009D101214804FFF759FB00214FF4003018
:10428000FFF754FB0BE0AB48844208D101218804BE
:10429000FFF74CFB00214FF48020FFF747FB10BDD8
:1042A00000220288944B98420ED0994B98420BD032
:1042B000B0F1804F08D0914B984205D0904B984276
:1042C00002D0904B984204D14FF68F731A404B881E
:1042D0001A438D4B984207D08C4B984204D04FF62E
:1042E000FF431A40CB881A4302808B8883850B8852
:1042F0000385814B98420BD0854B984208D08B4B5D
:10430000984205D08A4B984202D08A4B984201D1FC
:104310000B7A038601238382704770B50024002244
:104320000023058C4FF6FE7635400584028C838889
:10433000048B4FF68F752C40B51E2C400D882C43F6
:10434000751E2A400D892A434D882A436A4DA8428A
:104350000BD06F4DA84208D0744DA84205D0744DC3
:10436000A84202D0734DA84213D14FF6F7752A40E8
:104370004D892A434FF6FB752A408D882A434FF614
:10438000FF652B404FF6FF552B408D892B43CD8980
:104390002B4383800483CD888586028470BD70B5ED
:1043A000002400220023058C4FF6EF76354005846B
:1043B000028C8388048B48F6FF752C404FF6FF452E
:1043C0002C400D884FF6FF7606EA05252C434FF664
:1043D000DF752A400D8906EA05152A434D8806EA4D
:1043E00005152A43444DA84202D0494DA8421DD18B
:1043F0004FF67F752A404D894FF6FF7606EA051580
:104400002A434FF6BF752A408D8806EA05152A43D0
:104410004FF6FF352B404FF2FF752B408D8906EA92
:1044200085052B43CD8906EA85052B4383800483CC
:10443000CD880587028470BD70B50024002200235A
:10444000058C4FF6FF6635400584028C8388848B8B
:104450004FF68F752C404FF6FC752C400D882C4381
:104460004FF6FF552A400D894FF6FF7606EA0525DF
:104470002A434D8806EA05252A431F4DA84202D04B
:10448000234DA8421DD14FF2FF752A404D894FF6AA
:10449000FF7606EA05252A434FF6FF352A408D8828
:1044A00006EA05252A434EF6FF752B404DF6FF75AB
:1044B0002B408D8906EA05152B43CD8906EA0515A3
:1044C0002B4383808483CD888587028470BD70B53B
:1044D000002200230024058C4EF6FF76354005842B
:1044E000038C8488828B48F6FF752A404FF6FF457F
:1044F0002A400D8820E00000002C0140000400400C
:1045000000080040000C0040001000400014004073
:1045100000340140004C0140005001400054014073
:1045200000180040001C00400020004000400140F6
:1045300000440140004801404FF6FF7606EA052599
:104540002A434DF6FF752B400D8906EA05352B43AE
:104550004D8806EA05352B43FA4DA84202D0FA4DA4
:10456000A84208D14BF6FF752C408D894FF6FF7697
:1045700006EA85152C4384808283CD88A0F84050BC
:10458000038470BD828B4FF2FF331A408283828B8B
:104590004FF6FF7303EA01231A4382837047F0B595
:1045A0000C461546002200210026078C4EF6FF7CA3
:1045B00007EA0C070784828B018C4FF6FF7707EA26
:1045C000043640F6FF473A404FF6FF7707EA0527E3
:1045D0003A434FF6FF7707EA03373A43D94FB842D9
:1045E0000ED0D94FB8420BD0B0F1804F08D0D74F82
:1045F000B84205D0D64FB84202D0D64FB84206D105
:104600004DF6FF77394046F48057394305E047F6C9
:10461000FF57394044F48057394382830184F0BD09
:10462000828B4FF6F3731A408283828B0A43828314
:104630007047F0B50C461546002200210026078C75
:104640004FF6FF6C07EA0C070784828B018C4FF64C
:10465000FF7707EA04264FF60C773A404FF6FF77CC
:1046600007EA03172F433A43B64FB8420ED0B64F6E
:10467000B8420BD0B0F1804F08D0B44FB84205D04B
:10468000B34FB84202D0B34FB84206D14FF6FF57EE
:10469000394046F48077394305E04FF2FF573940FF
:1046A00044F48077394382830184F0BD028B4FF25A
:1046B000FF331A400283028B4FF6FF7303EA012394
:1046C0001A4302837047F0B50C46154600220021BC
:1046D0000026078C4FF6EF7C07EA0C070784028B55
:1046E000018C4FF6FF7707EA041640F6FF473A4081
:1046F0004FF6FF7707EA03373A434FF6FF7707EAAB
:1047000005273A438F4FB8420ED08F4FB8420BD097
:10471000B0F1804F08D08D4FB84205D08C4FB842D1
:1047200002D08C4FB84206D14FF6DF77394046F0C1
:104730001007394305E04FF65F77394044F0100722
:10474000394302830184F0BD028B4FF6F3731A40A4
:104750000283028B0A4302837047F0B50C4615466C
:1047600000220021068C4FF6FE773E400684028B25
:10477000018C4FF60C7632407E1C06EA03162E435F
:104780003243704EB0420ED06F4EB0420BD0B0F1FB
:10479000804F08D06D4EB04205D06D4EB04202D071
:1047A0006C4EB04206D14FF6FD76314044F0010622
:1047B000314305E04FF6F576314044F001063143D0
:1047C00002830184F0BD70B505460C465D48854204
:1047D0000ED05D4885420BD0B5F1804F08D05B48C4
:1047E000854205D05A48854202D05A48854200D1B8
:1047F00000E000BF208850B92389A288618828463C
:10480000FFF7ABFFE1882846FFF79EFF25E02088F1
:1048100004280AD12389A28861882846FFF753FF1C
:10482000E1882846FFF742FF17E0208808280AD1D0
:104830002389A28861882846FFF7FBFEE188284685
:10484000FFF7EEFE09E02389A28861882846FFF77A
:10485000A6FEE1882846FFF795FE70BD2DE9F041E0
:1048600005460C4600260127608808B9022600E0AC
:104870000026A088012801D1022700E00127208816
:10488000A0B92389A28861882846FFF766FFE188DE
:104890002846FFF759FF23893A4631462846FFF755
:1048A00012FFE1882846FFF701FF13E02389A28861
:1048B00061882846FFF707FFE1882846FFF7F6FEE4
:1048C00023893A4631462846FFF747FFE1882846C4
:1048D000FFF73AFFBDE8F0810A884B881A438B88BE
:1048E0001A43CB881A430B891A434B891A438B8985
:1048F0001A43A0F8442070474FF6FF7181800021D1
:104900000180C18041800172704700210180418097
:104910008180C180018141818181C18170470021F5
:1049200001804180012181800021C1800181704787
:104930000021018041808180C1800181418181818C
:1049400070470000002C014000340140000400408A
:1049500000080040000C004021B1028842F0010232
:10496000028004E002884FF6FE731A40028070470E
:1049700031B1B0F8442042F40042A0F8442005E0F0
:10498000B0F84420C2F30E02A0F8442070471AB1D8
:1049900083890B43838102E083898B438381704742
:1049A0008182704741EA0203A0F8483070471AB18B
:1049B00083890B43838102E083898B438381704722
:1049C00001894FF6F8721140018170470A460021B3
:1049D00001894FF68F73194011430181704730B53B
:1049E00004460D4629462046FFF7F0FF208940F097
:1049F0000700208130BD2DE9F04104460D461646E2
:104A00001F46602D06D13B46012231462046FFF766
:104A10005AFE05E03B46012231462046FFF79DFE47
:104A200029462046FFF7D2FF208940F00700208169
:104A3000BDE8F08130B50C4600210189C9B24FF6BE
:104A4000FF7505EA0325154325432943018130BD40
:104A50002DE9F04105460E46174698460024434688
:104A60003A4631462846FFF7E5FF2C894FF6F870A5
:104A7000044044F007044FF68F70044044F0700483
:104A80002C81BDE8F081F0B504460D4616461F4660
:104A90003B46324629462046FFF7CCFF208940F4AA
:104AA00080402081F0BD0185828270470A46002146
:104AB00001884FF68F731940114301807047F0B59C
:104AC0000C4615461E460021002200230189028B58
:104AD000038C4FF6F877394021434FF6FC473A40B4
:104AE00040F201173A434FF6DD773B404FF6FF7730
:104AF00007EA06172F433B43018102830384F0BD7D
:104B00000A460021018B4FF68F7319401143018330
:104B100070470A460021018B48F6FF7319404FF693
:104B2000FF7303EA02231943018370470A460021F9
:104B3000818B4FF68F7319401143818370470A466A
:104B40000021818B48F6FF7319404FF6FF7303EA8B
:104B5000022319438183704721B1028842F0800209
:104B6000028004E002884FF67F731A40028070478B
:104B700021B1828842F00402828004E082884FF6EC
:104B8000FB731A408280704721B1828842F008028C
:104B9000828004E082884FF6F7731A408280704763
:104BA00021B1828842F00102828004E082884FF6BF
:104BB000FE731A40828070470A460021018B4FF62F
:104BC000F77319401143018370470A460021018B96
:104BD0004FF2FF7319404FF6FF7303EA02231943A4
:104BE000018370470A460021818B4FF6F773194005
:104BF0001143818370470A460021818B4FF2FF7376
:104C000019404FF6FF7303EA02231943818370476B
:104C10000A460021018B4FF6FB73194011430183B3
:104C200070470A460021018B4FF6FF3319404FF6BB
:104C3000FF7303EA02231943018370470A460021E8
:104C4000818B4FF6FB7319401143818370470A46ED
:104C50000021818B4FF6FF3319404FF6FF7303EAB3
:104C600002231943818370470A460021018B4FF6C6
:104C70007F7319401143018370470A460021018B5D
:104C8000C1F30E014FF6FF7303EA022319430183B8
:104C900070470A460021818B4FF67F7319401143FC
:104CA000818370470A460021818BC1F30E014FF6C4
:104CB000FF7303EA02231943818370470A460021E8
:104CC000018C4FF6FD7319401143018470470A4669
:104CD0000021018C4FF6F77319401143018470478E
:104CE0000A460021018C4FF6DF7319404FF6FF731F
:104CF00003EA02131943018470470A460021018C1C
:104D00004FF67F7319404FF6FF7303EA02131943FE
:104D1000018470470A460021018C4FF6FF53194069
:104D20004FF6FF7303EA02231943018470470A46D2
:104D30000021018C4FF2FF7319404FF6FF7303EA15
:104D400002231943018470470A460021018C4DF665
:104D5000FF7319404FF6FF7303EA023319430184CE
:104D6000704730B5002301248C40A3B2048C9C43CF
:104D70000484048C02FA01F5ADB22C43048430BDE6
:104D800030B5002304248C40A3B2048C9C430484DB
:104D9000048C02FA01F5ADB22C43048430BD70B529
:104DA0000346002000241846183001258D40ACB27F
:104DB0001D8CA5431D8409B1082909D100EB6100B0
:104DC000056825F0700505600568154305600EE06F
:104DD0000D1FC5F34E052844056825F4E045056020
:104DE00005684FF6FF7606EA02263543056070BD7A
:104DF00021B1028842F00202028004E002884FF6EC
:104E0000FD731A400280704721B1028842F004020B
:104E1000028004E002884FF6FB731A40028070475C
:104E200021B1828842F08002828004E082884FF6BD
:104E30007F731A408280704702884FF6F7731A40DA
:104E4000028002880A430280704782884FF68F737F
:104E50001A40828082880A438280704702894FF616
:104E6000F8731A40028102890A430281704702895D
:104E70004FF67F731A40028102890A43028170470C
:104E800081847047818570478186704701877047AC
:104E900081877047A0F84010704702884FF6FF43A3
:104EA0001A40028002880A43028070470146888EB9
:104EB00070470146088F70470146888F704701464A
:104EC000B1F8400070470146888C70470146088D54
:104ED000704702460020138A0B400BB1012000E00E
:104EE00000207047CA430282704730B50246002056
:104EF00000230024158A05EA0103958905EA0104C7
:104F000013B10CB1012000E0002030BDCA43028281
:104F10007047A0F14101192900D82030704740EABC
:104F200001039B0703D009E008C9121F08C0042A27
:104F3000FAD203E011F8013B00F8013B521EF9D20E
:104F40007047D2B201E000F8012B491EFBD2704736
:104F50000022F6E710B513460A4604461946FFF745
:104F6000F0FF204610BD30B505462A460B4612F824
:104F7000010B13F8014B08B1A042F8D01CB1002876
:104F800002D06D1CF1E7284630BD421C10F8011B11
:104F90000029FBD1801A704710B5002200E0521C96
:104FA000835C8C5CA34201D1002BF8D1D8B2E1B272
:104FB000401A10BD034611F8012B00F8012B002AFE
:104FC000F9D11846704730B505460020034600E089
:104FD0005B1C934205D2EC5CC85C201A01D1002C0A
:104FE000F6D130BD0FB400B58DB010A909900B906B
:104FF00000914FF0FF300A9000200C900548069079
:10500000054807906A4609A80F9900F0CFFB0DB03C
:105010005DF814FBC9570008E75700082DE9FF4F5A
:10502000087883B09946FF2805D0491C2D2804D064
:105030000024002008E000200BE00124F9E700EB49
:10504000800003EB4000491C0B78FF2BF7D104B123
:10505000404200230293147819461D462D2C01D09E
:105060002B2C04D1521C2D2C13D000240294AA46C0
:105070001478FF2C0FD00A25A3FB057801FB0581CE
:105080004FF0000C03FB0C11521CE3194AEB010119
:10509000EEE70124EAE7814453EA010002D019F562
:1050A000C87F06DA03980021C0E9001107B0BDE807
:1050B000F08F0025AE4E2F46DFF8B882184600F07C
:1050C000F5FCCDE90001B9F1000002DAC9F10004F4
:1050D00000E004460023A74A1AEB030B42EB045AF4
:1050E00012E0E00707D02A4633463846414600F032
:1050F000F9F9074688462A4633461046194600F015
:10510000F1F905460E466410002CEAD1DDE90001F4
:10511000B9F1000F5A46534606DA00F058FC3A46F9
:10512000434600F054FC05E000F0DCF93A46434603
:1051300000F0D8F9029A0AB181F00041039AC2E95D
:105140000001B3E72DE9FF4F1F468DB0D7E90146B7
:105150004FF0FF382E2045464FF000090B90B969FB
:105160006D1C0E988847396A824688470028F6D118
:10517000BAF1FF3F0AD024F4D064002E11DDBAF159
:105180002B0F08D0BAF12D0F0BD102E0404611B021
:105190008DE744F48064B9696D1C0E988847824697
:1051A000761E6946600501D52D2000E02B208DF884
:1051B000000001F1010B0DF1200809E0B9696D1C37
:1051C0000E98884782460F9844F40074761E056056
:1051D000002E02DDBAF1300FF0D00B998A453ED196
:1051E00044F0800406E00F99681CA9F1010944F419
:1051F00000740860B9696D1C761E0E988847824657
:105200003028F0D02BE00B998A4505D1200603D435
:1052100044F08004761E18E0504601F033F808B3DD
:105220000DF11301761E44F400748B4508D2AAF1E7
:1052300030000BF8010B200607D5A9F1010003E0AF
:10524000200602D409F101008146A00502D50F997C
:10525000681C0860B9696D1C0E9888478246002E4C
:10526000D1DC53E0002E51DDBAF1650F02D0BAF166
:10527000450F4BD1A00549D5B9696D1C24F4407484
:10528000761E0E9888478246002E0CDD2B2804D00F
:10529000BAF12D0F07D144F48074B9696D1C0E98D2
:1052A00088478246761EE00501D52D2100E02B219E
:1052B00008F8011BCDF82C8021E00DF12901761EA4
:1052C00044F4007488450CD2AAF1300010F0FF00BD
:1052D00088F8000002D10B99884509D908F1010826
:1052E00006E0E00501D5244801E042F20F70814656
:1052F000B9696D1C0E98884782460F980560002E8C
:1053000004DD504600F0BEFF0028D6D1F9690E98A2
:105310008847FF208BF8000088F8000000200690E6
:1053200007904B466A4608A906A8FFF777FEA00536
:1053300002D46FF001002AE714F0240F0AD0E0072E
:1053400014D1DDE906123868031D3B600068C0E92E
:1053500000120BE0DDE9060100F0CCFB0146E0079E
:1053600004D13868021D3A600068016028460EE7E3
:10537000000014400000F03FF1D8FFFF70B5064672
:1053800000F054FE046805460A220021304600F071
:1053900089FA2C6070BD2DE9FE4F804681EA03003A
:1053A000C00F0C46009021F0004123F00045B8EBFF
:1053B0000200A94105D24046214690461C460B46B4
:1053C000024623F00040104347D0270DC7F30A00E0
:1053D000C3F30A510290401A019040286BDAC3F3DC
:1053E000130040F4801B0098924620B10023D2EBBA
:1053F000030A63EB0B0B01985946C0F1400250467B
:1054000000F09DF906460D4650465946019A00F0B7
:10541000B5F910EB08006141002487EA115284EAD3
:10542000E7731A4340D0009A62B3019A012A4FEA07
:10543000075215DC001B61EB02014FF0004202EA4B
:105440000752CDE90042001C41F5801132462B463F
:1054500000F06FFA03B0BDE8F08F40462146F9E74F
:10546000001B61EB0201001C41F5801300185B4139
:105470002018A2F5001747EB030140EAD570B619D2
:105480006D4111E06D084FEA360645EAC0754FEAF6
:105490000752001B61EB0201001C41F58011490815
:1054A0004FEA30000019514132462B4603B0BDE8A7
:1054B000F04F00F02FBA0098012240000023D0EBFB
:1054C000020263EBE073009821464FEAE074B8EB08
:1054D000000061EB0401E9E783F000435BE781F042
:1054E000004158E72DE9FE4F81EA030404F000442F
:1054F00021F0004100944FF0000B23F0004350EAEC
:1055000001045ED052EA03045BD0C3F30A54C1F332
:105510000A552C44A4F2F3340194A0FB0254C1F3C5
:10552000130141F48011C3F3130343F4801301FB0F
:10553000024400FB034E840A970A44EA815447EA76
:105540008357A4FB076802958D0A05FB07854FEA80
:10555000932C04FB0C542705029D4FEA065847EA9A
:105560001637B5EB08056EEB070C870E920E47EA6F
:10557000811742EA8312A7FB0201B6EB0B0164EB31
:1055800000042B0D43EA0C335E1844EB1C50DA4642
:105590005146E7FB0201C5F313044FEA0B3343EA1C
:1055A00014534FEA0432019C43EA0603A4F10C04AD
:1055B0000294009CCDE900B400F0BBF903B0BDE853
:1055C000F08F00200146F9E70EB5C10F80EAE070C8
:1055D0000844CA07002140F233438DE80E000A4612
:1055E0000B4600F0A6F903B000BD70B5C1F30A5236
:1055F00001F000450024C1F3130140F2FF3341F4F0
:1056000080119A4201DA002070BD40F233439A4281
:10561000A2F2334203DC524200F0A0F800E09040D6
:105620002C43F1D0404270BD00F0004230F0004009
:105630000AD0C10D01F56071C0F3160042EA0151B4
:10564000C208400711437047002001467047000020
:1056500030B5041E71F1000404DB4FF000444042F9
:1056600064EB0101141E73F1000405DB1C464FF0CE
:105670000043524263EB04038B4208BF824230BDB9
:1056800030B5041E71F1000404DB4FF000444042C9
:1056900064EB0101141E73F1000405DB1C464FF09E
:1056A0000043524263EB0403994208BF904230BD6D
:1056B00030B50B46014600202022012409E021FAE2
:1056C00002F59D4205D303FA02F5491B04FA02F5DF
:1056D0002844151EA2F10102F1DC30BD2DE9F05F76
:1056E0000546002092469B46884606468146402451
:1056F0001BE0284641464746224600F02FF8534615
:105700005A46C01A914110D311461846224600F05D
:1057100016F82D1A67EB01084F462246012000219A
:1057200000F00DF817EB00094E41201EA4F1010412
:10573000DFDC484631462A464346BDE8F09F202A32
:1057400004DB203A00FA02F1002070479140C2F1D8
:10575000200320FA03F3194390407047202A04DB0A
:10576000203A21FA02F00021704721FA02F3D040DA
:10577000C2F120029140084319467047202A06DBF7
:10578000CB17203A41FA02F043EAE07306E041FA0F
:1057900002F3D040C2F120029140084319467047FD
:1057A000026811441378016018467047D1600449BB
:1057B00051610449116200211161114600F0D6B90E
:1057C000A1570008595B0008426842B1016811F80E
:1057D000013B23B1521EC0E9001218467047012157
:1057E000C160881E704742685AB1C368016843B9F6
:1057F00083688B4205D0491E521CC0E9001200206C
:1058000070474FF0FF3070470FB4002300B589B0E8
:105810000CA900910B996FF00042CB601E4B0693D0
:105820001E4B07930423CDE901321D4A089202461C
:105830006B460020FFF786FC09B05DF814FB70B5DD
:1058400086B006464FF0FF300091CDE901010020FF
:1058500015460C4604903246694604A8FFF7D4FF6B
:1058600002460498211825B108B1084600E02046F8
:105870002860049800280DD0002A02DD0098884294
:1058800008D0081B0094CDE901043246694604A8FB
:10589000FFF7BAFF06B070BDC9570008E757000808
:1058A000595B00082DE9F04791460F4680460446B3
:1058B000002614F8015B2DB100F04AF90068405D44
:1058C000C007F6D12B2D02D02D2D18D0641E4A46CC
:1058D0003946204600F0E0FA27B13968A14201D1EB
:1058E000C7F8008071054FF002040BD54042002834
:1058F00003DD00F09BFB0460A007BDE8F08746F4E1
:105900008066E4E70028F8DA00F090FB04606FF0AE
:105910000040F2E710B5141E73F1000408DA401CD1
:1059200041F1000192185B411A4301D120F00100BE
:1059300010BD2DE9F04D92469B4611B1B1FA81F2AE
:1059400002E0B0FA80F220329046FFF7F8FE0446FB
:105950000F4640EA0A0041EA0B0153465A46084303
:1059600013D0114653EA010019D0C8F14002504645
:10597000FFF7F4FE05460E46504659464246FFF7ED
:10598000DEFE084305D0012004E020463946BDE88C
:10599000F08D0020054346EAE0762C4337430A9811
:1059A0006305E40AA0EB08000022FD0A44EA47541C
:1059B0000A3002D500200146E9E7010510196941C6
:1059C000DDE9084500196941BDE8F04DA2E72DE980
:1059D000F04D81EA030404F0004B21F00045144629
:1059E0004FF0000A23F0004150EA050220D054EAAB
:1059F00001021DD0C5F30A570246C5F31303C1F3D4
:105A00001300C1F30A5640F4801543F48013A7EB4A
:105A10000608101BD64608F2FD3873EB050002D3CA
:105A200008F1010801E092185B41B8F1000F03DAB8
:105A300000200146BDE8F08D00204FF4801106469D
:105A400084460EE0171B73EB050705D3121B63EBAF
:105A5000050306434CEA010C49084FEA300092184E
:105A60005B4150EA0107EDD152EA030012D082EA0D
:105A7000040083EA0501084305D0101BAB4106D2A0
:105A80000122002306E000224FF0004302E06FF005
:105A9000010253101AEB06004CEB085110EB0A0000
:105AA00041EB0B01BDE8F04DFFF734BF0EB540F2FE
:105AB000334202920022CDE900221346FFF739FF5C
:105AC00003B000BDC1F30A52C1F3130140F2FF332A
:105AD00041F480119A4202DA00200146704740F2F8
